:100000000C94EB000C9413010C9413010C94BD0A96
:100010000C94BD0A0C94BD0A0C9413010C941301AA
:100020000C9413010C9413010C9413010C94130100
:100030000C9413010C9413010C9413010C941301F0
:100040000C94220A0C9413010C94420D0C941C0D78
:100050000C9413010C9413010C9413010C941301D0
:100060000C9413010C941301E801E3012B022B0201
:100070002B022B02D8017202CC017202F601E301BD
:10008000ED01E801720272027202720272027202E1
:10009000720272027202720272027202720203022F
:1000A000720203027202720272027202720272021F
:1000B0007202720272027202E8012B02E801E80188
:1000C00072020302CC0172027202720272027202A6
:1000D00072027202720272025902590259025902E4
:1000E000720272020B02E8016602E801E301E80114
:1000F000E801E801E801E801E801030203027202F5
:1001000072027202E80172027202720272027202DA
:10011000720203027202E801E30144021602720253
:1001200072021F021F0203023033253032580D00C5
:1001300030330D004154535025750D000000000070
:10014000240027002A00000000080002010000032C
:10015000040700000000000000000000000025006F
:1001600028002B00000000002300260029000404C2
:10017000040404040404020202020202030303034F
:10018000030301020408102040800102040810202B
:100190000102040810204E414E494E495459494E1F
:1001A00046CDCCCC3D0AD7233C17B7D13877CC2BE2
:1001B000329595E6241FB14F0A000020410000C887
:1001C0004200401C4620BCBE4CCA1B0E5AAEC59D08
:1001D00074007E0D740D11241FBECFEFD8E0DEBF7A
:1001E000CDBF12E0A0E0B1E0E0E7FDE202C0059083
:1001F0000D92AE30B107D9F723E0AEE0B2E001C016
:100200001D92A937B207E1F710E0CAEED0E004C0B2
:100210002197FE010E947510C93ED107C9F70E94BF
:10022000570E0C94AB160C9400003FB7F8948091D5
:100230004F0290915002A0915102B091520226B506
:10024000A89B05C02F3F19F00196A11DB11D3FBF0E
:10025000BA2FA92F982F8827820F911DA11DB11D9C
:10026000BC01CD0142E0660F771F881F991F4A9598
:10027000D1F708950F931F93DC01ED91FC91008855
:10028000F189E02D08E813E120E040E050E06DEA5C
:1002900071E009951F910F9108956F37C8F461506F
:1002A000462F477020E830E002C0359527954A95E3
:1002B000E2F7E62FF0E033E0F595E7953A95E1F7C0
:1002C000E80FF91F8481282381E019F480E0089564
:1002D00081E008950F931F93CF93DF93CDB7DEB7DF
:1002E000A0970FB6F894DEBF0FBECDBFDC01ED9135
:1002F000FC910088F189E02D08E813E120E2AE01CD
:100300004F5F5F4F68E671E00995A0960FB6F894CD
:10031000DEBF0FBECDBFDF91CF911F910F9108952A
:10032000CF92DF92EF92FF920F931F93CF93DF93C1
:10033000CDB7DEB7C054D1090FB6F894DEBF0FBEFB
:10034000CDBF7C016B018A01DC01ED91FC9106A01F
:10035000F7A1E02D20E4AE014F5F5F4F0995BC018E
:10036000892B49F4C7010E943A01F70183818F5F0D
:10037000838380E0C3C0D601EC918E2F90E0049778
:10038000F701A081B1818036910508F0ABC08C5C8B
:100390009F4FFC010C947510D096ED91FC91D19774
:1003A000C7010995BC017695679576956795A2C0BA
:1003B000D296ED91FC91D397C7010995F3E08F9FF9
:1003C000B001112497C0D496ED91FC91D5971FC030
:1003D0009E96ED91FC919F9789C0D096ED91FC91EE
:1003E000D197C701099564E670E01DC0D296ED91E2
:1003F000FC91D397C70109958695282F30E0B90164
:100400006054710977C0D096ED91FC91D197C701E6
:100410000995BC016FC0D096ED91FC91D197C701B1
:10042000099568EE73E00E942E1064C0D096ED919D
:10043000FC91D197C701099564E170E0F4CFD296A1
:10044000ED91FC91D397C7010995282F30E0B901B0
:100450006D5771094FC0D296ED91FC91D397C701AA
:10046000099590E08058910944E6489F9001499F82
:10047000300D112437FF02C021583F4FB901660FDC
:10048000672F661F770B36C0D096ED91FC91D19700
:10049000C7010995A0E0B0E0BC01CD017956810902
:1004A000910920E830E040E050E00E945610B90188
:1004B00021C0D096ED91FC91D197C70109956AE0D2
:1004C00070E00E942E106852710914C0D096ED9110
:1004D000FC91D197C70109959C01A8ECB0E00E945E
:1004E0009C1697CFD296ED91FC91D397C7010995B1
:1004F000682F70E0D8016D937C9381E0C05CDF4F82
:100500000FB6F894DEBF0FBECDBFDF91CF911F9124
:100510000F91FF90EF90DF90CF9008950F931F936E
:10052000CF93DF93CDB7DEB7A0970FB6F894DEBFB9
:100530000FBECDBF8C01DC01ED91FC9102A4F3A5AF
:10054000E02D6EE671E00995D801ED91FC9100A4D3
:10055000F1A5E02D28EE33E040E2BE016F5F7F4F52
:10056000C8010995A0960FB6F894DEBF0FBECDBFA7
:10057000DF91CF911F910F910895BF92CF92DF929B
:10058000EF92FF920F931F93CF93DF936C01E42EB2
:10059000B62E8901EB01F12C8C2F8B198E1578F476
:1005A0006991D601ED91FC910284F385E02DA801BB
:1005B000C60109958111F3940E5F1F4FEDCF8F2D6A
:1005C000DF91CF911F910F91FF90EF90DF90CF902F
:1005D000BF9008950F931F93CF93DF9300D01F9286
:1005E000CDB7DEB78C016983D801ED91FC91068C03
:1005F000F78DE02DC8014A835B830995D801ED9101
:10060000FC9100A0F1A1E02D4A815B81BE016F5FEA
:100610007F4FC80109950F900F900F90DF91CF91F8
:100620001F910F910895CF92DF92EF92FF920F9357
:100630001F93CF93DF931F92CDB7DEB76C017A0182
:10064000DC01ED91FC9102A4F3A5E02D298309952D
:10065000D601ED91FC9104A4F5A5E02DC601099504
:10066000D601ED91FC9100A4F1A5E02D98014981FE
:10067000B701C6010F90DF91CF911F910F91FF90AD
:10068000EF90DF90CF900994FC01908181812FEB56
:10069000290F263010F497500AC02FE9290F263071
:1006A00010F4975204C020ED290F2A30B8F42FEB34
:1006B000280F263010F487500AC02FE9280F263063
:1006C00010F4875204C020ED280F2A3038F48F70C0
:1006D00040E1949F90011124822B089580E00895B9
:1006E000FC01919180E020E030E09923F1F084302A
:1006F000E4F44FEB490F463010F497500CC04FE92B
:10070000490F463010F4975206C0903261F040ED28
:10071000490F4A3050F444E0220F331F4A95E1F765
:100720009F70292B8F5F9191E0CFC9010895CB0174
:100730000E94440390E088970895CB010C944403F1
:10074000CB010C947003CB010E94440324E6829FEA
:10075000C00111246FEF70E00E942E10862F0895C3
:100760000895FC018489958908952091590230915A
:100770005A022817390771F4909157028091580254
:10078000981741F0E0915702F0E0E25FFD4F808161
:1007900090E008958FEF9FEF089508951F93CF93F2
:1007A000DF93DC015C962D913C915D97211531051D
:1007B00039F481E090E013969C938E9312973DC09C
:1007C0005196ED91FC91529750969C915097892F9C
:1007D00080951FB75E964C915E9741FB772770F925
:1007E00041FD6095F8944081772311F0492B01C0B9
:1007F00048234083E9012197F1F748E0508160FFE9
:1008000002C0592B01C058235083E9012197F1F709
:100810006695415099F7772321F090818923808351
:1008200003C08081982B90831FBF5C968D919C9113
:100830005D970197F1F721E030E0C901DF91CF9199
:100840001F9108952091590230915A0228173907B3
:1008500071F4809158022091570290E0805C9F4F84
:10086000821B910960E470E00E944210089580E0CC
:1008700090E008952091590230915A0228173907C3
:10088000B9F49091570280915802981789F0E0913D
:100890005702F0E0E25FFD4F80812091570230E087
:1008A0002F5F3F4F2F7333272093570290E0089517
:1008B0008FEF9FEF08950E947B100F931F93CF93AC
:1008C000DF93CDB7DEB760970FB6F894DEBF0FBEEB
:1008D000CDBFDC01ED91FC910088F189E02D08E8A5
:1008E00013E120E1AE014F5F5F4F62E771E00995D0
:1008F000882349F06FE370E0CE0101960E948010DA
:1009000021E0892B09F020E0822F60960FB6F89441
:10091000DEBF0FBECDBFDF91CF911F910F91089524
:10092000CF92DF92FF920F931F93CF93DF93CDB7B8
:10093000DEB7A0970FB6F894DEBF0FBECDBF6C0137
:1009400083E0F82ED601ED91FC910088F189E02D2D
:1009500008EC10E020E2AE014F5F5F4F6AE771E004
:10096000C60109958823A1F060E270E0CE010196EE
:100970000E948010FC01892B59F024812053828130
:10098000880F8056982F990F990F890F820F04C0F6
:10099000FA94F110D7CF80E0A0960FB6F894DEBF9E
:1009A0000FBECDBFDF91CF911F910F91FF90DF90D0
:1009B000CF900895FB012081822F022E000C990B0D
:1009C000C0970A9790F02D3281F06DE070E0CF0172
:1009D0000E948010009759F0FC013196DC011196BD
:1009E0002C912A3041F73196E6CFCF01089580E06F
:1009F00090E008956F927F928F929F92AF92BF92F4
:100A0000CF92DF92EF92FF920F931F93CF93DF93DA
:100A1000CDB7DEB7C054D1090FB6F894DEBF0FBE14
:100A2000CDBF7C013B015A014801672B09F446C048
:100A3000DC01ED91FC910088F189E02D08E813E1DB
:100A400020E4AE014F5F5F4F6FE771E009958823A7
:100A500009F4A8C0BE016F5F7F4FC7010E94DA048E
:100A6000009709F49FC06C01BFEFCB1ADB0A0E940C
:100A7000CC10F301918380836CE270E0C6010E9488
:100A80008010009709F48EC06C01FFEFCF1ADF0AC7
:100A9000C6010E94CC10D30113969C938E9312979B
:100AA0006CE270E0C6010E948010009709F47AC0E1
:100AB00001960E94CC10F30195838483A114B104A4
:100AC00009F446C0D701ED91FC910088F189E02D31
:100AD00008E813E120E4AE014F5F5F4F66E871E084
:100AE000C7010995882309F45DC0BE016F5F7F4F80
:100AF000C7010E94DA04009709F454C06C01BFEFEB
:100B0000CB1ADB0A0E94CC10F501918380836CE242
:100B100070E0C6010E948010009709F443C06C0188
:100B2000FFEFCF1ADF0AC6010E94CC10D501139641
:100B30009C938E9312976CE270E0C6010E94801025
:100B4000009781F101960E94CC10F5019583848372
:100B50008114910429F1D701ED91FC910088F1896C
:100B6000E02D08E813E120E4AE014F5F5F4F62E73C
:100B700071E0C70109958823A9F0BE016F5F7F4F1F
:100B8000C7010E94DA04009769F00E94CC108458D3
:100B90009F4C62E270E00E944210F4017183608316
:100BA00081E001C080E0C05CDF4F0FB6F894DEBF8B
:100BB0000FBECDBFDF91CF911F910F91FF90EF90AE
:100BC000DF90CF90BF90AF909F908F907F906F906D
:100BD0000895FC01158A148A0C94B60C0F931F9388
:100BE000CF93DF93CDB7DEB728970FB6F894DEBF6B
:100BF0000FBECDBF8C0188E0E0E0F1E0DE01119690
:100C000001900D928A95E1F769817A818B819C81AF
:100C10000E94440CD801ED91FC9104A0F5A1E02DB7
:100C2000C8010995811118C06D817E818F819885D9
:100C30000E94440CD801ED91FC9104A0F5A1E02D97
:100C4000C80128960FB6F894DEBF0FBECDBFDF9166
:100C5000CF911F910F91099428960FB6F894DEBF9B
:100C60000FBECDBFDF91CF911F910F910895EF92ED
:100C7000FF920F931F93CF93DF937B01242FDC010F
:100C8000ED91FC910088F189E02D08E813E1AB01BA
:100C90006EE871E00995882329F164E971E0C701E4
:100CA0000E948B100097F1F00A96EC012196888142
:100CB000803269F4CE0101960E944403F7018083DB
:100CC000882319F0FFEFEF1AFF0A2396F0CF6AE3AB
:100CD00070E0CE010E948010009739F7D7011C9276
:100CE00081E001C080E0DF91CF911F910F91FF90D3
:100CF000EF9008959F92AF92BF92CF92DF92EF92C2
:100D0000FF920F931F93CF93DF937C016B015A01E6
:100D1000922ED701ED91FC9100A4F1A5E02D28EED3
:100D200033E0492DB501C7010995882321F18501DB
:100D30006DE971E0C8010E948B10EC01892B49F329
:100D40008E010D5F1F4FC8010E944403D6019C9184
:100D5000911101C08C93F60190818913E9CFD701DD
:100D600013961C928E010B5F1F4F8D81803201F70D
:100D7000CE01069602C080E090E0DF91CF911F91F6
:100D80000F91FF90EF90DF90CF90BF90AF909F902A
:100D900008954F925F926F927F929F92AF92BF920F
:100DA000CF92DF92EF92FF920F931F93CF93DF9337
:100DB000CDB7DEB7C854D1090FB6F894DEBF0FBE69
:100DC000CDBF8C015B0186E0E8E0F1E0DE01AF5BC6
:100DD000BF4F01900D928A95E1F77E0181E4E80E04
:100DE000F11C370196E0690E711CDE0111966D0150
:100DF000F701619171917F01D801ED91FC9102A4FD
:100E0000F3A5E02DC8010995D801ED91FC9100A44E
:100E1000F1A5E02D28E833E140E4B601C8010995C9
:100E2000811105C0F801158A148A80E083C0E61498
:100E3000F704F1F6A114B10459F480E1F8013496F5
:100E4000DF011D928A95E9F75F01912C30E040C0E7
:100E5000BF92AF9284E391E09F938F93DF92CF9202
:100E60000E94FB10D801ED91FC9100A4F1A5E02DAA
:100E700028E833E140E4B601C80109950F900F90CE
:100E80000F900F900F900F908111D7CF61EA71E012
:100E9000C6010E948B10892B81F6C4CFC7010E9426
:100EA0004403D3018D933D01B3E0EB0EF11CE41438
:100EB000F50429F0F70131978081803279F3E0E27F
:100EC0009E0EF4E0AF0EB11C31E080E8981651F1AF
:100ED00028969FAE2897D801ED91FC91068CF78D4E
:100EE000E02D692DC80129963FAF29970995D801B2
:100EF000ED91FC9106A0F7A1E02D20E4A601BE0132
:100F0000695B7F4FC801099529963FAD29970097E6
:100F100039F07C012C01BCE04B0E511C3501CACFCD
:100F2000332339F082E090E0F801958B848B1382B3
:100F300031E0832FC85BDF4F0FB6F894DEBF0FBEE2
:100F4000CDBFDF91CF911F910F91FF90EF90DF9078
:100F5000CF90BF90AF909F907F906F905F904F9099
:100F600008959F92AF92BF92CF92DF92EF92FF923D
:100F70000F931F93CF93DF93CDB7DEB7C058D1093E
:100F80000FB6F894DEBF0FBECDBF6C01A62E972E14
:100F9000B42E00E010E0CE0101967C01980101150D
:100FA000110519F088E291E002C080E391E03F93DF
:100FB0002F939F938F93FF92EF920E94FB10D60185
:100FC000ED91FC9102A4F3A5E02DB701C6010995AE
:100FD000D601ED91FC9100A4F1A5E02D28EE33E0BF
:100FE00040E8B701C60109950F900F900F900F9040
:100FF0000F900F908823A1F165EB71E0C7010E946B
:101000008B10892B69F56DEB71E0C7010E948B1085
:10101000009761F1CA2CD92CF12CFB1441F1FC0191
:101020002081222321F18C010A5F1F4FFC01868160
:101030008D3051F46AE370E0C8010E94801000977F
:10104000B1F08C010E5F1F4FC8010E947003009722
:1010500071F0F394D6018D939D936D01C801DDCF9E
:101060000F5F1F4F0630110509F098CFF12C8F2D1F
:10107000C058DF4F0FB6F894DEBF0FBECDBFDF9173
:10108000CF911F910F91FF90EF90DF90CF90BF9085
:10109000AF909F9008954F925F926F927F92AF9220
:1010A000BF92CF92DF92EF92FF920F931F93CF9355
:1010B000DF936C018B0159018FB7F8944090530274
:1010C0005090540260905502709056028FBFD0E04D
:1010D000C0E0E42EF12C81E0E81AF1088BE592E003
:1010E0000E949A0B892BD1F18BE592E00E94780B3C
:1010F000D82F0115110581F16C2F70E06E157F0559
:101100006CF78E32A1F4C33018F19801260F371F07
:10111000F901319780818E32D9F4319780818E32F6
:10112000B9F4C0E088E8A82E83E1B82ED7CF8D307F
:1011300021F08A3011F0803259F4CC2379F2F80191
:10114000E60FF71F319780818D3041F28A3031F2FE
:10115000F801E60FF71FD083CF5FC0CFDE3311F168
:101160002FB7F8948091530290915402A0915502A8
:10117000B09156022FBF84199509A609B709A50198
:101180000B2C000C660B770B481759076A077B0777
:1011900048F0D601ED91FC9104A4F5A5E02DC6011F
:1011A00009959CCF0115110521F0F801EC0FF11DF7
:1011B00010828C2FDF91CF911F910F91FF90EF90B4
:1011C000DF90CF90BF90AF907F906F905F904F90E7
:1011D0000895EF92FF920F931F93CF93DF93CDB7B4
:1011E000DEB7A0970FB6F894DEBF0FBECDBF7C016F
:1011F000DC01ED91FC910088F189E02D08E813E114
:1012000020E2AE014F5F5F4F60EC71E009958823EB
:1012100059F0BE016F5F7F4FC7010E94DA0400974B
:1012200019F00E94C81003C060E070E0CB01A096E6
:101230000FB6F894DEBF0FBECDBFDF91CF911F91E7
:101240000F91FF90EF900895EF92FF920F931F93ED
:10125000CF93DF93CDB7DEB728970FB6F894DEBFF4
:101260000FBECDBF8C011F926F93DC0112968C9143
:101270001F928F9386EC91E09F938F93FE0131969E
:101280007F01FF93EF930E94A510D801ED91FC918F
:1012900002A4F3A5E02DB701C80109950FB6F89493
:1012A000DEBF0FBECDBF28960FB6F894DEBF0FBECF
:1012B000CDBFDF91CF911F910F91FF90EF900895D7
:1012C00090E0FC01EA5BFE4F3491FC01EE57FE4FCB
:1012D0002491FC01E259FE4FE491EE2309F43BC056
:1012E000332339F1333091F038F43130A9F0323012
:1012F00001F584B58F7D12C0373091F03830A1F000
:101300003430B9F4809180008F7D03C080918000DB
:101310008F77809380000DC084B58F7784BD09C01E
:101320008091B0008F7703C08091B0008F7D809353
:10133000B000F0E0EE0FFF1FE65AFE4FA591B4910A
:101340008FB7F894EC91611103C020952E2301C052
:101350002E2B2C938FBF0895CF93DF9390E0FC0149
:10136000EE57FE4F2491FC01E259FE4F84918823F1
:1013700061F190E0880F991FFC01E45CFE4FC5917C
:10138000D491FC01E65AFE4FA591B491611109C0B8
:101390009FB7F8948881209582238883EC912E232F
:1013A0000BC0623061F49FB7F8943881822F80952A
:1013B00083238883EC912E2B2C939FBF06C08FB77D
:1013C000F894E8812E2B28838FBFDF91CF91089569
:1013D0008F929F92AF92BF92CF92DF92EF92FF9245
:1013E0006B017C010E9415014B015C01C114D10409
:1013F000E104F104F1F00E941501DC01CB01881930
:101400009909AA09BB09883E9340A105B10570F36B
:1014100021E0C21AD108E108F10888EE880E83E0C5
:10142000981EA11CB11CC114D104E104F10419F7E8
:10143000DDCFFF90EF90DF90CF90BF90AF909F9067
:101440008F9008951F920F920FB60F9211242F9331
:101450003F938F939F93AF93BF938091530290914B
:101460005402A0915502B091560230914E0223E0F1
:10147000230F2D3720F40196A11DB11D05C026E8CC
:10148000230F0296A11DB11D20934E02809353029B
:1014900090935402A0935502B093560280914F024C
:1014A00090915002A0915102B09152020196A11D5B
:1014B000B11D80934F0290935002A0935102B093BC
:1014C0005202BF91AF919F918F913F912F910F90B9
:1014D0000FBE0F901F9018956115710579F0FB01F3
:1014E00001900020E9F73197AF01461B570BDC0153
:1014F000ED91FC910280F381E02D099480E090E071
:101500000895CF92DF92EF92FF92CF93DF93EC0199
:101510006A017B0160ED71E08BE592E00E946C0A4C
:101520002AE0B701A6018BE592E00E94D30CE0917E
:101530005B02F0915C020190F081E02D6DE08BE5A3
:1015400092E0099562E370E080E090E00E94E80993
:101550000E94B60CC701B6010E94440CCE010E9445
:101560003A0181E0DF91CF91FF90EF90DF90CF9033
:1015700008958BE592E00C946C0A1F920F920FB6BF
:101580000F9211242F933F934F935F936F937F9309
:101590008F939F93AF93BF93EF93FF93E091590283
:1015A000F0915A02309709F451C0968DA685B785FF
:1015B000858591FF04C09C91892329F447C09C91A3
:1015C000892309F043C0A389B4899C9185898095BA
:1015D00089238C93868997890197F1F7608D718DA6
:1015E000A685B785558538E020E0CB010197F1F756
:1015F000822F90E095958795282F4C91452309F0EF
:101600002068315091F7868D81FD20958091580298
:1016100090E001968F73992730915702381749F05F
:10162000A0915802B0E0A25FBD4F2C938093580266
:1016300003C0868D8160868F828D938D0197F1F72F
:10164000A389B4899C918589892B8C93FF91EF9113
:10165000BF91AF919F918F917F916F915F914F91CA
:101660003F912F910F900FBE0F901F901895E09112
:101670005902F0915A02E817F90769F4A389B4896D
:101680009C918589809589238C9310925A0210929F
:10169000590281E0089580E00895CF92DF92EF92A1
:1016A000FF920F931F93CF93DF936C017A018B010D
:1016B000C0E0D0E0CE15DF0589F0D8016D918D0135
:1016C000D601ED91FC910190F081E02DC6010995C4
:1016D000892B11F47E0102C02196ECCFC701DF9166
:1016E000CF911F910F91FF90EF90DF90CF900895D1
:1016F000FC01918D828D981761F0828DDF01A80F1A
:10170000B11D5D968C91928D9F5F9F73928F90E03B
:1017100008958FEF9FEF0895FC01918D828D9817AA
:1017200031F0828DE80FF11D858D90E008958FEFE7
:101730009FEF0895FC01918D228D892F90E0805CB0
:101740009F4F821B91098F73992708958BE592E033
:101750000E949A0B21E0892B09F420E0822F089542
:10176000FC01848DDF01A80FB11DA35ABF4F2C913E
:10177000848D90E001968F739927848FA689B7890D
:101780002C93A089B1898C9180648C93938D848DE6
:10179000981306C00288F389E02D80818F7D8083B5
:1017A0000895EF92FF920F931F93CF93DF93EC0175
:1017B00081E0888F9B8D8C8D981305C0E889F9890D
:1017C000808185FD24C0F62E0B8D10E00F5F1F4F2A
:1017D0000F731127E02E8C8DE8120CC00FB607FC9A
:1017E000FACFE889F989808185FFF5CFCE010E9483
:1017F000B00BF1CF8B8DFE01E80FF11DE35AFF4FC7
:10180000F0820B8FEA89FB898081806207C0EE89B4
:10181000FF896083E889F98980818064808381E021
:1018200090E0DF91CF911F910F91FF90EF9008957D
:10183000CF93DF93EC01888D8823C9F0EA89FB8977
:10184000808185FD05C0A889B9898C9186FD0FC06E
:101850000FB607FCF5CF808185FFF2CFA889B98943
:101860008C9185FFEDCFCE010E94B00BE7CFDF91C9
:10187000CF91089580E090E0892B29F00E94A60B7B
:1018800081110C9400000895CF92DF92EF92FF92A5
:101890006B017C01E0916B02F0916C0282E080832D
:1018A000C11481EED806E104F104B1F060E079E002
:1018B0008DE390E0A70196010E943816DA01C90174
:1018C0000197A109B109B695A795979587959C01B0
:1018D000211580E13807B8F0E0916B02F0916C02BD
:1018E000108260E874E88EE190E0A70196010E9402
:1018F0003816DA01C9010197A109B109B695A79572
:10190000979587959C01E0916702F091680230837A
:10191000E0916902F0916A02208310927302E091D3
:101920006F02F091700286E08083E0916D02F09189
:101930006E02808180618083E0916D02F0916E0281
:10194000808188608083E0916D02F0916E028081D9
:1019500080688083E0916D02F0916E0280818F7DBE
:101960008083FF90EF90DF90CF9008958BE592E019
:101970000E94180CEBE5F2E0A289B3898C918F7E6E
:101980008C93A289B3898C91877F8C93A289B38928
:101990008C918F778C93A289B3898C918F7D8C9356
:1019A000828D818F08954F925F926F927F92EF9216
:1019B000FF920F931F93CF93DF93CDB7DEB7A1971D
:1019C0000FB6F894DEBF0FBECDBF7C01FA01CB018C
:1019D00019A2223008F42AE08E010F5D1F4F422E1B
:1019E000512C612C712CBF01A30192010E94381669
:1019F000F901CA01015011096A3014F4605D01C097
:101A0000695CD8016C93232B242B252B61F7B8013B
:101A1000C7010E946C0AA1960FB6F894DEBF0FBEF4
:101A2000CDBFDF91CF911F910F91FF90EF907F90ED
:101A30006F905F904F9008951F920F920FB60F9284
:101A400011242F933F934F935F936F937F938F93C3
:101A50009F93AF93BF93EF93FF938BE592E00E9428
:101A6000B00BFF91EF91BF91AF919F918F917F91BB
:101A70006F915F914F913F912F910F900FBE0F90FB
:101A80001F9018951F920F920FB60F9211242F934B
:101A90008F939F93EF93FF93E0916B02F0916C0211
:101AA0008081E0917102F091720282FD12C09081FA
:101AB000809174028F5F8F7320917502821751F0AD
:101AC000E0917402F0E0E55AFD4F958F8093740227
:101AD00001C08081FF91EF919F918F912F910F9085
:101AE0000FBE0F901F90189582E291E09093F9023B
:101AF0008093F80288EF92E00C94370B10925E020C
:101B000010925D0288EE93E0A0E0B0E080935F0267
:101B100090936002A0936102B093620222E131E0EF
:101B200030935C0220935B0225EC30E03093680236
:101B30002093670224EC30E030936A02209369021C
:101B400020EC30E030936C0220936B0221EC30E00B
:101B500030936E0220936D0222EC30E030937002DD
:101B600020936F0226EC30E03093720220937102D2
:101B700010927402109275021092760210927702FF
:101B800010923503109236031092370310923803E7
:101B90001092390310923A0310923B0310923C03C7
:101BA00010923D0310923E0310923F0310924003A7
:101BB0001092410310924203109243031092440387
:101BC00022E331E0309318032093170361E0609320
:101BD000190310921A0310922C0310922B031092E7
:101BE000FB021092FA028093FC029093FD02A093F4
:101BF000FE02B093FF0282E291E09093F90280939B
:101C0000F80210920F0310920E031092110310921B
:101C100010031092130310921203109215031092E6
:101C20001403809116038E7F8D7F80931603869513
:101C30008170682784E00E94600961E084E00E946E
:101C4000AC09E6E8F1E0E491E0930803E2E7F1E0B3
:101C5000E491F0E0EE0FFF1FE65AFE4F859194915C
:101C600090930A038093090360E083E00E94AC092B
:101C70008091160381FD04C061E083E00E94600949
:101C800083E080930403E5E8F1E0E491E093050349
:101C9000E1E7F1E0E491F0E0EE0FFF1FEC59FE4FB9
:101CA0008591949190930703809306030895789407
:101CB00084B5826084BD84B5816084BD85B5826051
:101CC00085BD85B5816085BD80916E008160809302
:101CD0006E0010928100809181008260809381006B
:101CE000809181008160809381008091800081607B
:101CF000809380008091B10084608093B1008091D6
:101D0000B00081608093B00080917A0084608093FD
:101D10007A0080917A00826080937A0080917A00C4
:101D2000816080937A0080917A00806880937A0045
:101D30001092C100109273031092740310927503F5
:101D400010927603109231031092320310923303F3
:101D50001092340360ED77E080E090E00E94E809A3
:101D60008BE592E0909372038093710360E072ECD4
:101D700081E090E00E94440C2FB7F89480915302C8
:101D800090915402A0915502B09156022FBF8093BA
:101D9000310390933203A0933303B093340367ED80
:101DA00071E080917103909172030E946C0A6AE065
:101DB00070E080E090E00E94E80981E080934503B4
:101DC00061E08CE00E94AC0961E088E00E94AC090F
:101DD00061E087E00E94AC0961E08CE00E9460094C
:101DE0006AEF70E080E090E00E94E80960E08CE03B
:101DF0000E94600961E088E00E9460096AEF70E07B
:101E000080E090E00E94E80960E088E00E946009BC
:101E100061E087E00E9460096AEF70E080E090E096
:101E20000E94E80960E087E00E94600910921303B5
:101E300010921203109211031092100310920F03CC
:101E400010920E038DE991E0909315038093140393
:101E500090910403963108F057C02DEB30E0309399
:101E60000F0320930E032BE931E0309311032093ED
:101E700010032CE231E030931303209312032091DE
:101E80006800983050F031E09E3008F430E081E096
:101E900001C0880F3A95EAF701C084E0822B809355
:101EA0006800983038F09E3040F0963148F020E0DD
:101EB00030E008C02DE630E005C02BE630E002C07F
:101EC0002CE630E030930C0320930B03983030F471
:101ED00081E001C0880F9A95EAF70EC0292F30E003
:101EE0009E3018F42850310902C02E50310981E08B
:101EF00001C0880F2A95EAF780930D03809114039F
:101F0000909115030197F1F78091120390911303BB
:101F1000892B21F18091590290915A0222E0883F49
:101F20009207E1F0009711F00E94370B80911603A1
:101F30008E7F80931603109258021092570288EFFA
:101F400092E090935A0280935902E0910B03F09132
:101F50000C03908180910D03892B808369EE71E0E1
:101F600088EF92E00E946C0A66EE71E088EF92E0E2
:101F70000E946C0A87E193E00E94EE0560E070E049
:101F800087E193E00E94C9068823C1F36DEF71E0F9
:101F900088EF92E00E946C0A66EE71E088EF92E0B2
:101FA0000E946C0A60E08CE00E94600960E088E0BA
:101FB0000E94600960E087E00E9460094DE253E002
:101FC0006CE087E193E00E94EA028823F1F1C0907F
:101FD0002D03D0902E030D2C000CEE08FF08F7FE09
:101FE00014C0E091F802F091F9020190F081E02D27
:101FF0006DE288EF92E0099544275527BA014C1904
:102000005D096E097F092AE003C02AE0B701A60135
:1020100088EF92E00E94D30C66EE71E088EF92E0C8
:102020000E946C0A80912D0390912E0361E0813D06
:1020300027E0920714F48CE006C0813A9F4014F424
:1020400088E001C087E00E9460096AE070E080E0FB
:1020500090E00E94E8090E943A0CA4CFAA1BBB1B87
:1020600051E107C0AA1FBB1FA617B70710F0A61B98
:10207000B70B881F991F5A95A9F780959095BC01B9
:10208000CD01089597FB072E16F4009407D077FD35
:1020900009D00E942E1007FC05D03EF49095819542
:1020A0009F4F0895709561957F4F0895052E97FB7A
:1020B0001EF400940E946D1057FD07D00E94381640
:1020C00007FC03D04EF40C946D105095409530955C
:1020D00021953F4F4F4F5F4F089590958095709594
:1020E00061957F4F8F4F9F4F0895EE0FFF1F059013
:1020F000F491E02D099481E090E0F8940C94AB16F3
:10210000FC018191861721F08823D9F7992708953A
:102110003197CF010895FB0151915523A9F0BF01DB
:10212000DC014D9145174111E1F759F4CD010190C2
:10213000002049F04D9140154111C9F3FB014111B7
:10214000EFCF81E090E001970895AEE0B0E0EBEAD8
:10215000F0E10C9473160D891E8986E08C831A8336
:1021600009838FEF9FE79E838D83AE01475E5F4FAC
:102170006F89788DCE0101960E941E112F813885BE
:10218000F801E20FF31F10822E96E4E00C948F16F4
:10219000662777270C94F012FC0188279927E8948A
:1021A00021912032E9F3293010F02E30C8F32B3280
:1021B00041F02D3239F4689404C00E94F310820F6C
:1021C000911D219120532A30C0F31EF490958195E2
:1021D0009F4F089591110C944D14803219F089503D
:1021E0008550C8F708957AE0979F902D879F802D9E
:1021F000910D11240895AEE0B0E0E1E0F1E10C941E
:1022000073160D891E898EE08C831A8309838FEFE4
:102210009FE79E838D83AE01475E5F4F6F89788D08
:10222000CE0101960E941E112F813885F801E20F20
:10223000F31F10822E96E4E00C948F16ACE0B0E011
:10224000E4E2F1E10C9465167C016B018A01FC016A
:1022500017821682838181FFBDC1CE0101964C0198
:10226000F7019381F60193FD859193FF81916F01B1
:10227000882309F4ABC1853239F493FD859193FF2E
:1022800081916F01853229F4B70190E00E947E149C
:10229000E7CF512C312C20E02032A0F48B3269F0B2
:1022A00030F4803259F0833269F420612CC08D32D1
:1022B00039F0803339F4216026C02260246023C0C5
:1022C000286021C027FD27C030ED380F3A3078F460
:1022D00026FF06C0FAE05F9E300D1124532E13C076
:1022E0008AE0389E300D1124332E20620CC08E32CD
:1022F00021F426FD6BC1206406C08C3611F42068E1
:1023000002C0883641F4F60193FD859193FF8191D7
:102310006F018111C1CF982F9F7D9554933028F480
:102320000C5F1F4FFFE3F9830DC0833631F0833715
:1023300071F0833509F05BC022C0F8018081898388
:102340000E5F1F4F44244394512C540115C0380193
:10235000F2E06F0E711CF801A080B18026FF03C06F
:10236000652D70E002C06FEF7FEFC5012C870E94E2
:1023700073142C0183012C852F77222E17C038016E
:10238000F2E06F0E711CF801A080B18026FF03C03F
:10239000652D70E002C06FEF7FEFC5012C870E94B2
:1023A00068142C012C852068222E830123FC1BC07D
:1023B000832D90E048165906B0F4B70180E290E012
:1023C0000E947E143A94F4CFF50127FC859127FEF4
:1023D00081915F01B70190E00E947E1431103A9420
:1023E000F1E04F1A51084114510471F7E5C08436E9
:1023F00011F0893639F5F80127FF07C06081718136
:10240000828193810C5F1F4F08C060817181072E0C
:10241000000C880B990B0E5F1F4F2F76722E97FFC3
:1024200009C090958095709561957F4F8F4F9F4F14
:102430002068722E2AE030E0A4010E94B614A82E73
:10244000A81844C0853729F42F7EB22E2AE030E048
:1024500025C0F22FF97FBF2E8F36C1F018F48835D2
:1024600079F0B4C0803719F0883721F0AFC02F2F32
:102470002061B22EB4FE0DC08B2D8460B82E09C031
:1024800024FF0AC09F2F9660B92E06C028E030E0D6
:1024900005C020E130E002C020E132E0F801B7FEE3
:1024A00007C060817181828193810C5F1F4F06C0DC
:1024B0006081718180E090E00E5F1F4FA4010E9457
:1024C000B614A82EA818FB2DFF777F2E76FE0BC022
:1024D000372D3E7FA51450F474FE0AC072FC08C06C
:1024E000372D3E7E05C0BA2C372D03C0BA2C01C053
:1024F000B52C34FF0DC0FE01EA0DF11D8081803343
:1025000011F4397E09C032FF06C0B394B39404C0FD
:10251000832F867809F0B39433FD13C030FF06C0D3
:102520005A2CB31418F4530C5B18B32CB31468F47E
:10253000B70180E290E03C870E947E14B3943C8512
:10254000F5CFB31410F43B1801C0312C34FF12C086
:10255000B70180E390E03C870E947E143C8532FF07
:1025600017C031FD03C088E790E002C088E590E025
:10257000B7010CC0832F867859F031FF02C08BE27F
:1025800001C080E237FD8DE2B70190E00E947E1429
:10259000A51438F4B70180E390E00E947E145A94A9
:1025A000F7CFAA94F401EA0DF11D8081B70190E004
:1025B0000E947E14A110F5CF332009F451CEB7014B
:1025C00080E290E00E947E143A94F6CFF701868173
:1025D000978102C08FEF9FEF2C96E2E10C94811659
:1025E000A0E0B0E0E6EFF2E10C946916EC017B01AB
:1025F0006115710519F0DB018D939C938E010F5FBE
:102600001F4F7880872D90E00E94EA10892B11F0EF
:10261000E801F4CFBDE27B1205C00F5F1F4F798048
:10262000C1E008C0EBE27E1204C08E010E5F1F4FB6
:102630007980C0E06801F1E0CF1AD10843E050E0B2
:102640006EE971E0C6010E945014892BF1F4680113
:1026500022E0C20ED11C45E050E069E971E0C601FC
:102660000E945014892B21F4680187E0C80ED11C08
:10267000E114F10419F0D701CD92DC92C111FFC031
:1026800060E070E080E89FE703C143E050E066E966
:1026900071E0C6010E945014892B51F4E114F10439
:1026A00009F4F2C00E5F1F4FF70111830083ECC0E5
:1026B000680160E070E0CB0100E010E0F601D0EDD1
:1026C000D70DDA3058F52C2F2260622E2C2F28706F
:1026D000C2FF05C0211128C00F5F1F4F25C0222354
:1026E00011F001501109A5E0B0E09B01AC010E947E
:1026F0005A164B015C01880C991CAA1CBB1CC50115
:10270000B4016D0F711D811D911D6839A9E97A070A
:102710008A07A9E19A0740F0C66005C0DE3F51F480
:10272000C3FD44C0C8606C2EBFEFCB1ADB0A7080BB
:10273000C62DC4CF2D2F2F7D2531C1F540814D32BF
:1027400011F4C06106C04B3221F0319621E030E037
:1027500006C03296D60111964C9122E030E0A0EDF1
:10276000A40FAA3018F0E21BF30B20C040E050E0A9
:102770004038BCE05B075CF49A01220F331F220F44
:10278000331F420F531F440F551F4A0F511D3196DF
:10279000DF0111972C91A0EDA20FAA3048F3C4FFDE
:1027A00003C0519541955109040F151FC1FF07C082
:1027B000E114F10421F03197D701ED93FC930E94CD
:1027C0001915C370C33019F06B017C0106C06B0191
:1027D0007C01F7FAF094F7F8F09420E030E0A901DA
:1027E000C701B6010E941415882309F445C017FFDC
:1027F00006C0119501951109C5EBD1E002C0CDECE1
:10280000D1E05E01B8E1AB1AB1084601BE2DAF2D93
:1028100090E2E92EF12C0E151F0584F0FE012591A2
:10282000359145915491B4018B2F9A2F0E947A15BE
:102830004B01B82FA92F0E191F09EDCF2497F5943E
:10284000E794CA15DB0539F76401EB2EFA2E8E2DBD
:10285000880F8F2D881F8F3F49F020E030E0A901BD
:10286000C701B6010E941415811106C082E290E0F2
:102870009093780380937703C701B60109C060E0A5
:1028800070E080E89FEF04C060E070E080EC9FE7BC
:10289000CDB7DEB7EEE00C9485169927882708950A
:1028A000FB01DC014150504088F08D9181341CF0D7
:1028B0008B350CF4805E659161341CF06B350CF443
:1028C000605E861B611171F3990B0895881BFCCF24
:1028D000FC010590615070400110D8F780959095EB
:1028E0008E0F9F1F0895FC016150704001900110F0
:1028F000D8F7809590958E0F9F1F08950F931F9383
:10290000CF93DF93FB01238121FD03C08FEF9FEF66
:1029100028C022FF16C04681578124813581421785
:10292000530744F4A081B1819D012F5F3F4F318354
:1029300020838C93268137812F5F3F4F37832683F7
:1029400010C0EB01092F182F0084F185E02D0995A7
:10295000892BE1F68E819F8101969F838E83812F43
:10296000902FDF91CF911F910F910895FA01AA271F
:10297000283051F1203181F1E8946F936E7F6E5FC2
:102980007F4F8F4F9F4FAF4FB1E03ED0B4E03CD070
:10299000670F781F891F9A1FA11D680F791F8A1F53
:1029A000911DA11D6A0F711D811D911DA11D20D0BA
:1029B00009F468943F912AE0269F11243019305D74
:1029C0003193DEF6CF010895462F4770405D419365
:1029D000B3E00FD0C9F7F6CF462F4F70405D4A33B2
:1029E00018F0495D31FD4052419302D0A9F7EACF7A
:1029F000B4E0A6959795879577956795BA95C9F7A9
:102A000000976105710508959B01AC010A2E06949B
:102A10005795479537952795BA95C9F7620F731F54
:102A2000841F951FA01D08950E94561508F481E08B
:102A30000895E89409C097FB3EF4909580957095B1
:102A400061957F4F8F4F9F4F9923A9F0F92F96E9FA
:102A5000BB279395F695879577956795B795F1116F
:102A6000F8CFFAF4BB0F11F460FF1BC06F5F7F4F0C
:102A70008F4F9F4F16C0882311F096E911C077231E
:102A800021F09EE8872F762F05C0662371F096E827
:102A9000862F70E060E02AF09A95660F771F881FF6
:102AA000DAF7880F9695879597F90895990F00089A
:102AB000550FAA0BE0E8FEEF16161706E807F90710
:102AC000C0F012161306E407F50798F0621B730BAB
:102AD000840B950B39F40A2661F0232B242B252B2C
:102AE00021F408950A2609F4A140A6958FEF811DCF
:102AF000811D08950E948D150C94FE150E94F015FD
:102B000038F00E94F71520F0952311F00C94E7158A
:102B10000C94ED1511240C9432160E940F1670F3CC
:102B2000959FC1F3950F50E0551F629FF001729F72
:102B3000BB27F00DB11D639FAA27F00DB11DAA1F81
:102B4000649F6627B00DA11D661F829F2227B00DCE
:102B5000A11D621F739FB00DA11D621F839FA00D59
:102B6000611D221F749F3327A00D611D231F849FA9
:102B7000600D211D822F762F6A2F11249F57504000
:102B80009AF0F1F088234AF0EE0FFF1FBB1F661F7B
:102B9000771F881F91505040A9F79E3F510580F044
:102BA0000C94E7150C9432165F3FE4F3983ED4F38F
:102BB000869577956795B795F795E7959F5FC1F7E8
:102BC000FE2B880F911D9695879597F9089597F993
:102BD0009F6780E870E060E008959FEF80EC0895C3
:102BE00000240A94161617061806090608950024EC
:102BF0000A9412161306140605060895092E039466
:102C0000000C11F4882352F0BB0F40F4BF2B11F4D9
:102C100060FF04C06F5F7F4F8F4F9F4F089557FD38
:102C20009058440F551F59F05F3F71F04795880F3A
:102C300097FB991F61F09F3F79F0879508951216D1
:102C400013061406551FF2CF4695F1DF08C016167D
:102C500017061806991FF1CF86957105610508942E
:102C60000895E894BB2766277727CB0197F9089545
:102C7000A1E21A2EAA1BBB1BFD010DC0AA1FBB1F80
:102C8000EE1FFF1FA217B307E407F50720F0A21BF2
:102C9000B30BE40BF50B661F771F881F991F1A945F
:102CA00069F760957095809590959B01AC01BD0189
:102CB000CF0108950E949C16A59F900DB49F900D82
:102CC000A49F800D911D112408952F923F924F9241
:102CD0005F926F927F928F929F92AF92BF92CF92AC
:102CE000DF92EF92FF920F931F93CF93DF93CDB7B5
:102CF000DEB7CA1BDB0B0FB6F894DEBF0FBECDBF2D
:102D000009942A88398848885F846E847D848C84FD
:102D10009B84AA84B984C884DF80EE80FD800C8106
:102D20001B81AA81B981CE0FD11D0FB6F894DEBFE9
:102D30000FBECDBFED010895A29FB001B39FC001AA
:102D4000A39F700D811D1124911DB29F700D811DD7
:102D50001124911D089510E0CAEED0E004C0FE01D8
:102D60000E9475102196CB3ED107C9F7F894FFCF8A
:102D70000096000000C20100A401A901AF010000FB
:102D80000000D10B4D0B9A0B780B8C0B180C00002C
:102D90000000CE034D0B22043A04B503CD0300001E
:102DA0000000EE05C906E905810AB103EA02BD0289
:102DB0006A011303B1078E02E90837065D04FA04BD
:102DC000240990014D0190047A064B08B90AB0031A
:102DD000A303A0039D03970341544C500D003034CE
:102DE0000D00415454454D500D004154490D0041D2
:102DF0005441434C0D0041544759524F0D00303956
:102E000030320D00303A2034392030320034312055
:102E1000004F4B0041545A0D00415445300D0041C4
:102E20005448300D004E4F2044415441003433008B
:102E3000415452560D0025303258253032580D007D
:102E400041544252312000564D4450565F317C313E
:102E50005F564D4450560D0A00496E697469616CA5
:102E6000697A696E67204F42442E2E2E004F4244ED
:0E2E700020696E697469616C697A656400009E
:107E0000112484B714BE81FFF0D085E080938100F7
:107E100082E08093C00088E18093C10086E0809377
:107E2000C20080E18093C4008EE0C9D0259A86E02C
:107E300020E33CEF91E0309385002093840096BBD3
:107E4000B09BFECF1D9AA8958150A9F7CC24DD24C4
:107E500088248394B5E0AB2EA1E19A2EF3E0BF2EE7
:107E6000A2D0813461F49FD0082FAFD0023811F036
:107E7000013811F484E001C083E08DD089C08234E0
:107E800011F484E103C0853419F485E0A6D080C0E4
:107E9000853579F488D0E82EFF2485D0082F10E0AE
:107EA000102F00270E291F29000F111F8ED06801E7
:107EB0006FC0863521F484E090D080E0DECF843638
:107EC00009F040C070D06FD0082F6DD080E0C81688
:107ED00080E7D80618F4F601B7BEE895C0E0D1E017
:107EE00062D089930C17E1F7F0E0CF16F0E7DF06D8
:107EF00018F0F601B7BEE89568D007B600FCFDCFD4
:107F0000A601A0E0B1E02C9130E011968C91119780
:107F100090E0982F8827822B932B1296FA010C0160
:107F200087BEE89511244E5F5F4FF1E0A038BF0790
:107F300051F7F601A7BEE89507B600FCFDCF97BE46
:107F4000E89526C08437B1F42ED02DD0F82E2BD052
:107F50003CD0F601EF2C8F010F5F1F4F84911BD097
:107F6000EA94F801C1F70894C11CD11CFA94CF0C13
:107F7000D11C0EC0853739F428D08EE10CD085E9AC
:107F80000AD08FE07ACF813511F488E018D01DD067
:107F900080E101D065CF982F8091C00085FFFCCF94
:107FA0009093C60008958091C00087FFFCCF809118
:107FB000C00084FD01C0A8958091C6000895E0E648
:107FC000F0E098E1908380830895EDDF803219F02E
:107FD00088E0F5DFFFCF84E1DECF1F93182FE3DFCA
:107FE0001150E9F7F2DF1F91089580E0E8DFEE27F6
:047FF000FF270994CA
:027FFE00040479
:0400000300007E007B
:00000001FF