:100000000C9463000C948B000C948B000C940B04E8
:100010000C940B040C940B040C948B000C948B002C
:100020000C948B000C948B000C948B000C948B0024
:100030000C948B000C948B000C948B000C948B0014
:100040000C94C1030C948B000C948F030C946903E3
:100050000C948B000C948B000C948B000C948B00F4
:100060000C948B000C948B000000000024002700EF
:100070002A0000000008000201000003040700003D
:1000800000000000000000000000250028002B00F8
:1000900000000000230026002900040404040404D6
:1000A0000404020202020202030303030303010227
:1000B00004081020408001020408102001020408F6
:1000C00010208504A20611241FBECFEFD8E0DEBFAA
:1000D000CDBF11E0A0E0B1E0E8EDFDE002C0059089
:1000E0000D92AC34B107D9F722E0ACE4B1E001C025
:1000F0001D92AD39B207E1F710E0C2E6D0E004C0CE
:100100002197FE010E94D406C136D107C9F70E948B
:1001100050050C94DF060C940000E9E9F1E0A08999
:10012000B18982E08C93A089B1891C92A485B585A0
:100130001C92A685B78580E18C93108EA489B58921
:1001400086E08C93A289B3898C9180618C93A2897B
:10015000B3898C9188608C93A289B3898C918068D3
:100160008C930288F389E02D80818F7D80830895B0
:10017000CF92DF92EF92FF920F931F93CF93DF9373
:100180006C017A018B01C0E0D0E0CE15DF0589F06B
:10019000D8016D918D01D601ED91FC910190F08116
:1001A000E02DC6010995892B11F47E0102C021962C
:1001B000ECCFC701DF91CF911F910F91FF90EF908E
:1001C000DF90CF900895FC01918D828D981761F09A
:1001D000828DDF01A80FB11D5D968C91928D9F5F7E
:1001E0009F73928F90E008958FEF9FEF0895FC0129
:1001F000918D828D981731F0828DE80FF11D858DDC
:1002000090E008958FEF9FEF0895FC01918D228D6E
:10021000892F90E0805C9F4F821B91098F739927F3
:10022000089589E991E00E94050121E0892B09F4F4
:1002300020E0822F0895FC01848DDF01A80FB11DFD
:10024000A35ABF4F2C91848D90E001968F7399270C
:10025000848FA689B7892C93A089B1898C918064F9
:100260008C93938D848D981306C00288F389E02DBA
:1002700080818F7D80830895EF92FF920F931F936B
:10028000CF93DF93EC0181E0888F9B8D8C8D981349
:1002900005C0E889F989808185FD24C0F62E0B8D83
:1002A00010E00F5F1F4F0F731127E02E8C8DE812A7
:1002B0000CC00FB607FCFACFE889F989808185FF69
:1002C000F5CFCE010E941B01F1CF8B8DFE01E80F0F
:1002D000F11DE35AFF4FF0820B8FEA89FB89808181
:1002E000806207C0EE89FF896083E889F98980818F
:1002F0008064808381E090E0DF91CF911F910F9126
:10030000FF90EF900895CF93DF93EC01888D8823C1
:10031000C9F0EA89FB89808185FD05C0A889B98972
:100320008C9186FD0FC00FB607FCF5CF808185FF4D
:10033000F2CFA889B9898C9185FFEDCFCE010E94BB
:100340001B01E7CFDF91CF91089580E090E0892BEA
:1003500029F00E94110181110C940000089590E091
:10036000FC01EE58FF4F3491FC01E255FF4F249100
:10037000FC01E656FF4FE491EE2309F43BC0332322
:1003800039F1333091F038F43130A9F0323001F5E1
:1003900084B58F7D12C0373091F03830A1F0343001
:1003A000B9F4809180008F7D03C0809180008F77A9
:1003B000809380000DC084B58F7784BD09C0809183
:1003C000B0008F7703C08091B0008F7D8093B00024
:1003D000F0E0EE0FFF1FEA57FF4FA591B4918FB7E2
:1003E000F894EC91611103C020952E2301C02E2BAF
:1003F0002C938FBF0895CF93DF9390E0FC01E255DB
:10040000FF4F2491FC01E656FF4F8491882361F150
:1004100090E0880F991FFC01E859FF4FC591D491D6
:10042000FC01EA57FF4FA591B491611109C09FB734
:10043000F8948881209582238883EC912E230BC029
:10044000623061F49FB7F8943881822F80958323BE
:100450008883EC912E2B2C939FBF06C08FB7F89406
:10046000E8812E2B28838FBFDF91CF9108953FB76E
:10047000F89480918D0190918E01A0918F01B0919F
:10048000900126B5A89B05C02F3F19F00196A11D2C
:10049000B11D3FBFBA2FA92F982F8827820F911D1A
:1004A000A11DB11DBC01CD0142E0660F771F881F61
:1004B000991F4A95D1F708958F929F92AF92BF925C
:1004C000CF92DF92EF92FF926B017C010E94370284
:1004D0004B015C01C114D104E104F104F1F00E946C
:1004E0003702DC01CB0188199909AA09BB09883EAA
:1004F0009340A105B10570F321E0C21AD108E108CB
:10050000F10888EE880E83E0981EA11CB11CC1146E
:10051000D104E104F10419F7DDCFFF90EF90DF90F3
:10052000CF90BF90AF909F908F90089520919701AA
:10053000309198012817390771F4909195018091B5
:100540009601981741F0E0919501F0E0E45BFE4FD1
:10055000808190E008958FEF9FEF089508951F9395
:10056000CF93DF93DC015C962D913C915D97211533
:10057000310539F481E090E013969C938E931297A5
:100580003DC05196ED91FC91529750969C91509799
:10059000892F80951FB75E964C915E9741FB772718
:1005A00070F941FD6095F8944081772311F0492B53
:1005B00001C048234083E9012197F1F748E05081C9
:1005C00060FF02C0592B01C058235083E9012197D5
:1005D000F1F76695415099F7772321F090818923AF
:1005E000808303C08081982B90831FBF5C968D9180
:1005F0009C915D970197F1F721E030E0C901DF910F
:10060000CF911F910895209197013091980128175B
:10061000390771F4809196012091950190E0805CFA
:100620009F4F821B910960E470E00E94AC06089520
:1006300080E090E00895209197013091980128176B
:100640003907B9F49091950180919601981789F036
:10065000E0919501F0E0E45BFE4F808120919501EF
:1006600030E02F5F3F4F2F7333272093950190E0A9
:1006700008958FEF9FEF0895E0919701F091980111
:10068000E817F90769F4A389B4899C918589809555
:1006900089238C93109298011092970181E008951C
:1006A00080E008956115710579F0FB01019000204B
:1006B000E9F73197AF01461B570BDC01ED91FC9137
:1006C0000280F381E02D099480E090E008950E947B
:1006D000DA061F920F920FB60F9211242F933F93B9
:1006E0004F935F936F937F938F939F93AF93BF933A
:1006F000EF93FF9389E991E00E941B01FF91EF9135
:10070000BF91AF919F918F917F916F915F914F9129
:100710003F912F910F900FBE0F901F9018951F9231
:100720000F920FB60F9211242F938F939F93EF93F5
:10073000FF93E091A901F091AA018081E091AF01BE
:10074000F091B00182FD12C090818091B2018F5F63
:100750008F732091B301821751F0E091B201F0E064
:10076000E756FE4F958F8093B20101C08081FF91C3
:10077000EF919F918F912F910F900FBE0F901F902F
:1007800018951F920F920FB60F9211242F933F933B
:100790008F939F93AF93BF9380919101909192011A
:1007A000A0919301B091940130918C0123E0230F2B
:1007B0002D3720F40196A11DB11D05C026E8230F99
:1007C0000296A11DB11D20938C01809391019093FD
:1007D0009201A0939301B093940180918D01909127
:1007E0008E01A0918F01B09190010196A11DB11DC4
:1007F00080938D0190938E01A0938F01B09390010F
:10080000BF91AF919F918F913F912F910F900FBE0C
:100810000F901F9018951F920F920FB60F921124F0
:100820002F933F934F935F936F937F938F939F93F8
:10083000AF93BF93EF93FF93E0919701F0919801ED
:10084000309709F451C0968DA685B785858591FFAF
:1008500004C09C91892329F447C09C91892309F005
:1008600043C0A389B4899C918589809589238C9301
:10087000868997890197F1F7608D718DA685B78577
:10088000558538E020E0CB010197F1F7822F90E009
:1008900095958795282F4C91452309F02068315074
:1008A00091F7868D81FD20958091960190E00196CB
:1008B0008F73992730919501381749F0A0919601CF
:1008C000B0E0A45BBE4F2C938093960103C0868D4D
:1008D0008160868F828D938D0197F1F7A389B4890A
:1008E0009C918589892B8C93FF91EF91BF91AF915A
:1008F0009F918F917F916F915F914F913F912F9138
:100900000F900FBE0F901F90189510929C0110929F
:100910009B0188EE93E0A0E0B0E080939D0190936E
:100920009E01A0939F01B093A00124E031E0309399
:100930009A012093990125EC30E03093A601209391
:10094000A50124EC30E03093A8012093A70120EC0E
:1009500030E03093AA012093A90121EC30E03093DC
:10096000AC012093AB0122EC30E03093AE01209338
:10097000AD0126EC30E03093B0012093AF0110922E
:10098000B2011092B3011092B4011092B50110920D
:100990003C0210923D0210923E0210923F021092D1
:1009A00040021092410210924202109243021092B1
:1009B0004402109245021092460210924702109291
:1009C00048021092490210924A0210924B02109271
:1009D0008102109280028093820290938302A093FE
:1009E0008402B093850284E191E090937F0280932A
:1009F0007E02109295021092940210929702109229
:100A00009602109299021092980210929B021092F4
:100A10009A0260919C026E7F6D7F60939C02669546
:100A2000617081E068278BE00E94AF0161E08BE09C
:100A30000E94FB01E9EBF0E0E491E0938E02E5EA2D
:100A4000F0E0E491F0E0EE0FFF1FEA57FF4F8591D1
:100A500094919093900280938F0260E08AE00E94CC
:100A6000FB0180919C0281FD04C061E08AE00E944C
:100A7000AF018AE080938A02E8EBF0E0E491E09332
:100A80008B02E4EAF0E0E491F0E0EE0FFF1FE057A4
:100A9000FF4F8591949190938D0280938C020895DD
:100AA000789484B5826084BD84B5816084BD85B549
:100AB000826085BD85B5816085BD80916E00816055
:100AC00080936E00109281008091810082608093FB
:100AD00081008091810081608093810080918000FD
:100AE0008160809380008091B10084608093B10028
:100AF0008091B00081608093B00080917A00846022
:100B000080937A0080917A00826080937A0080914D
:100B10007A00816080937A0080917A008068809367
:100B20007A001092C10010927A0210927B02109209
:100B30007C0210927D0210923802109239021092BB
:100B40003A0210923B0260ED77E080E090E00E9474
:100B50005C0289E991E090937902809378020E9487
:100B60008D002FB7F8948091910190919201A091FE
:100B70009301B09194012FBF809338029093390272
:100B8000A0933A02B0933B0260E271E08091780258
:100B9000909179020E9452036AE070E080E090E058
:100BA0000E945C0281E080934C0261E08DE00E9433
:100BB000FB010E948D006AE371E089E991E00E94E7
:100BC00052036FE271E089E991E00E9452031092B2
:100BD0009902109298021092970210929602109227
:100BE0009502109294028EE393E090939B0280937F
:100BF0009A0290918A02963108F057C02DE831E0B0
:100C000030939502209394022CE333E030939702C3
:100C10002093960224E632E03093990220939802C2
:100C200020916800983050F031E09E3008F430E0B8
:100C300081E001C0880F3A95EAF701C084E0822B79
:100C400080936800983038F09E3040F0963148F03C
:100C500020E030E008C02DE630E005C02BE630E0B3
:100C600002C02CE630E0309392022093910298303B
:100C700030F481E001C0880F9A95EAF70EC0292F61
:100C800030E09E3018F42850310902C02E5031094E
:100C900081E001C0880F2A95EAF780939302809142
:100CA0009A0290919B020197F1F78091980290919E
:100CB0009902892B21F1809197019091980122E06E
:100CC0008E379207E1F0009711F00E943C0380916B
:100CD0009C028E7F80939C02109296011092950147
:100CE0008EE792E09093980180939701E0919102B2
:100CF000F0919202908180919302892B808362E32C
:100D000071E08EE792E00E9452036FE271E08EE79D
:100D100092E00E94520360E08DE00E94AF0164EF18
:100D200071E080E090E00E945C0261E08DE00E9452
:100D3000AF0164EF71E080E090E00E945C020E94ED
:100D4000A501E9CF84E191E090937F0280937E0238
:100D50008EE792E00C943C0397FB072E16F4009468
:100D600007D077FD09D00E94C00607FC05D03EF4ED
:100D7000909581959F4F0895709561957F4F089547
:100D8000AA1BBB1B51E107C0AA1FBB1FA617B707B1
:100D900010F0A61BB70B881F991F5A95A9F78095CD
:100DA0009095BC01CD010895EE0FFF1F0590F491C1
:100DB000E02D099481E090E0F8940C94DF0610E0B7
:100DC000C2E6D0E004C0FE010E94D4062196C336DC
:080DD000D107C9F7F894FFCF29
:100DD800000000003C01B8000501E300F7008301B2
:100DE80000000000AF02B80003031B039602AE0226
:100DF800564D4450565F317C315F564D4450560D28
:100E08000A00536F66747761726553657269616C25
:0C0E180020737461727465642E2E2E002D
:00000001FF
